S01E00004469676974616C204368616E6E656C2053656C6563742E73726563EF
S11300000C9434000C9449000C9449000C9449005D
S11300100C9449000C9449000C9449000C94490038
S11300200C9449000C9449000C9449000C94490028
S11300300C9449000C9449000C9449000C94490018
S11300400C9449000C9449000C9449000C94490008
S11300500C9449000C9449000C9449000C944900F8
S11300600C9449000C94490011241FBECFEFD8E032
S1130070DEBFCDBF11E0A0E0B1E0EAEAF0E002C0EB
S113008005900D92A030B107D9F70E9450000C944E
S113009053000C94000089E284B982E58CBD089574
S10D00A00E944B00FFCFF894FFCF3D
S9030000FC
